:02000000632A71
:10000600083083120313FC002330FD00FD0B092882
:06001600FC0B09280800A4
:10001C00103083120313FD00FD0B122800000800A2
:04002C0000000800C8
:1000300083160317B61B20288312031306122328E6
:1000400083120313061683160317361B2B288312FD
:10005000031386112E2883120313861583160317A4
:10006000B61A362883120313061139288312031394
:10007000061583160317361A4128831203138610B8
:100080004428831203138614831603172C184C2854
:100090008312031386164F28831203138612061742
:1000A0001620061383160317B6195A288312031352
:1000B00006125D28831203130616831603173619DA
:1000C000652883120313861168288312031386158B
:1000D00083160317B61870288312031306117328AA
:1000E0008312031306158316031736187B28831211
:1000F000031386107E2883120313861483160317B6
:100100002C1886288312031386168928831203135A
:100110008612061716200613831603172C1C922826
:08012000032093280E200800C3
:10012800831603172C103508B600182083160317FA
:040138002C1408007B
:0E013C00831603172E088A002D088200080083
:10014A00B728803083160317B000CA28C030B00021
:10015A00CA289430B000CA28D430B000CA288030E7
:10016A00B000CA28831603173008013A0319A628D3
:10017A003008023A0319AB283008033A0319AE28AB
:10018A003008043A0319B128B4283103F0003008C2
:10019A00F0077008B0002C147008B60018208316F7
:1001AA0003172C103208B6001820831603172C14D4
:0201BA0008003B
:1001BC008316031306138612861006118611061277
:1001CC00831206138612061286110611861003205E
:1001DC000320032006158614061716200613032089
:1001EC0006171620061303200617162006130320E5
:1001FC008610061716200613032006171620061362
:10020C00061106160617162006130320061286146E
:10021C000617162006138610061716200613032041
:10022C00061716200613861406171620061303202D
:10023C008610061716200613061686150615861444
:10024C000617162006130320831603172C14080018
:10025C00831603178C1C342900002E2930088312B6
:10026C008D008316310883128C0083168C130C15A9
:10027C000B08F0008B1355308D00AA308D008C14B8
:0E028C00F01B4A298B134B298B170C1108000D
:10029A005F29803083160317B0007229C030B0007E
:1002AA0072299430B0007229D430B000722980309B
:1002BA00B0007229831603173008013A03194E2930
:1002CA003008023A031953293008033A0319562908
:1002DA003008043A031959295C293103F00030081F
:1002EA00F0077008B0007008B600182083160317CC
:1002FA002C10B301330832078400000803198D2932
:10030A003308320784000008B5009420B30A7F2915
:04031A002C14080097
:10031E009E208A110A128000840AAD0A0319AE0AC1
:08032E00F003031D8F290800F4
:1003360083160317B001B201B3011030B4000430C4
:1003460033020318D429F030831203138800803057
:10035600F0007008083E8400831603173409F00085
:1003660070088000162016200F308312031308052C
:10037600F000700883160317B10070080319CE2920
:100386003208B00031080319CC29B10CB113B00AF8
:10039600C5290430B300B40D34100430B207B30AD3
:0803A600A2293008F000080054
:1003AE00831603173008F1000C2A4F30F0004C2A48
:1003BE003030F0004C2A3D30F0004C2A2B30F0004B
:1003CE004C2A3130F0004C2A3230F0004C2A3330B7
:1003DE00F0004C2A2D30F0004C2A3430F0004C2A1C
:1003EE003530F0004C2A3630F0004C2A2A30F0001E
:1003FE004C2A3730F0004C2A3830F0004C2A393075
:10040E00F0004C2A2F30F0004C2A7108013A0319E3
:10041E00DC297108023A0319DF297108033A03191E
:10042E00E2297108043A0319E5297108053A0319FE
:10043E00E8297108063A0319EB297108073A0319DE
:10044E00EE297108083A0319F1297108093A0319BE
:10045E00F42971080A3A0319F72971080B3A03199E
:10046E00FA2971080C3A0319FD2971080D3A03197E
:10047E00002A71080E3A0319032A71080F3A03195C
:0C048E00062A7108103A0319092A080018
:10049A0083160317300883128D0083168C130C14ED
:0804AA0083120C08F0000800A9
:1004B200803083120313F0007008083E8400FF307E
:0404C20080000800AE
:1004C6005027831603130610861307178717831200
:1004D60006105922DE200130B60018200C30831693
:1004E6000317B600182083160317B0013130B10088
:1004F6002E210130B0003930B1002E210230B0007B
:100506003730B1002E210330B0003230B1002E2139
:10051600A601A7010130B0000130B1004C30B20095
:100526004D218316031700302706031D9C2A013030
:100536002606031DB22A83120313071FB22A0614C6
:100546001030FB003930FC000D30FD00FD0BA92AF0
:10055600FC0BA92AFB0BA92A0000000006109B2110
:100566007008AB004130FC00EE30FD00FD0BB92AEF
:10057600FC0BB92A00002B080319B22A2B08B0007D
:10058600D7217008AB000230B0000E30B100700801
:10059600B200A5202B084F3A0319E62A2B083D3A4C
:1005A6000319E62A2B082B3A0319E62A2B082A3ABE
:1005B6000319E62A2B082D3A0319E62A2B082F3AA7
:1005C6000319E62AD02C2B084F3A031D892C00303C
:1005D6002706031DF02A00302606031D892C01304C
:1005E600B6001820013083160317B0000130B100A1
:1005F6005A30B2004D21A801A90180302906F00029
:1006060080307002031D092B00302802031C822B48
:1006160080302906F00080307002031D142B043050
:1006260028020318822B9B217008AA000230FB00C7
:100636008630FC009930FD00FD0B1F2BFC0B1F2B99
:10064600FB0B1F2B2A080319162B2A08B000D721EB
:100656007008AA005B2B0230B0000130B1002A08F6
:10066600B200A5202A089E007C2B0230B000023082
:10067600B1002A08B200A5202A089F007C2B023070
:10068600B0000330B1002A08B200A5202A08831260
:100696000313EF007C2B023083160317B0000430DF
:1006A600B1002A08B200A5202A080313EF007C2B0C
:1006B600003003172906031D622B00302806031994
:1006C6002E2B00302906031D6A2B0130280603193C
:1006D600382B00302906031D722B02302806031919
:1006E600422B00302906031D7A2B033028060319F6
:1006F6004E2B83160317A80A0319A90A002B0130EB
:10070600B6001820013083160317B0000130B1007F
:100716002030B2004D21A801A90180302906F00041
:1007260080307002031D992B00302802031C0A2C0E
:1007360080302906F00080307002031DA42B04309F
:10074600280203180A2C9B217008AA000230FB001D
:100756008630FC009930FD00FD0BAF2BFC0BAF2B58
:10076600FB0BAF2B2A080319A62B2A08B000D721AA
:100776007008AA00E62B0230B0000130B1002A084A
:10078600B200A5202A08A000062C0230B0000230D4
:10079600B1002A08B200A5202A08A100062C0230C2
:1007A600B0000330B1002A08B200A5202A08A20032
:1007B600062C0230B0000430B1002A08B200A52091
:1007C6002A08A300062C00302906031DEC2B003056
:1007D60028060319BE2B00302906031DF42B013011
:1007E60028060319C82B00302906031DFC2B0230EE
:1007F60028060319D22B00302906031D042C0330CA
:1008060028060319DC2BA80A0319A90A902B013024
:10081600B60018208316031720081E06031D592C40
:1008260021081F06031D592C2208831203136F0685
:10083600031D592C83160317230803136F06031D84
:10084600592C01300317B600182083160317A4018C
:10085600A50180302506F00080307002031D352C7E
:10086600043024020318432C2408B0002408A03EB8
:1008760084000008B1002E21A40A0319A50A2C2C15
:100886000130B0000130B1003030B2004D211030DF
:10089600FB003930FC000D30FD00FD0B502CFC0B2D
:1008A600502CFB0B502C000000007C2C83160317E9
:1008B6000130B6001820013083160317B00001304E
:1008C600B1003F30B2004D210230B0000130B1001E
:1008D6003A30B2004D211030FB003930FC000D30AB
:1008E600FD00FD0B742CFC0B742CFB0B742C000010
:1008F60000000130B6001820013083160317B0003F
:100906000130B1004930B2004D21AA2C0130B600A9
:100916001820013083160317B0000130B10067308C
:10092600B2004D210230B0000130B1002930B200D2
:100936004D211030FB003930FC000D30FD00FD0B61
:10094600A22CFC0BA22CFB0BA22C000000000130F9
:10095600B60018200030831603172706031DB52C92
:1009660000302606031DBE2C0130B0000130B10058
:100976005730B2004D2100302706031DC42C01302C
:100986002606031DCD2C0130B0000130B100903099
:10099600B2004D219C019D013C2E9C0A03199D0A23
:1009A6001C2E0230B0000130B1002B08B200A52089
:1009B6002B089E003C2E0230B0000230B1002B08FE
:1009C600B200A5202B089F003C2E0230B000033059
:1009D600B1002B08B200A5202B0883120313EF00E9
:1009E6003C2E831603179C019D010230B000043093
:1009F600B1002B08B200A520A401A5018030250670
:100A0600F00080307002031D0A2D04302402031802
:100A16001B2D2408A03EAF002408B0004D228316EB
:100A26002F08840070088000A40A0319A50A012D66
:100A360020081E06031D8C2D21081F06031D8C2D64
:100A46002208831203136F06031D8C2D83160317CA
:100A560023082B06031D8C2D00302706031D352D7C
:100A660000302606031D5F2D0313ED01EE01013054
:100A76000317A6000030A700831203138617013060
:100A860083160317B6001820013083160317B0002B
:100A96000130B1006530B2004D211030FB00393015
:100AA600FC000D30FD00FD0B562DFC0B562DFB0BEF
:100AB600562D000000003C2E00302706031D652D34
:100AC60001302606031D8B2D0313ED01EE01831263
:100AD600861383160317A601A7010130B600182056
:100AE600013083160317B0000130B100BA30B200EE
:100AF6004D211030FB003930FC000D30FD00FD0BA0
:100B0600822DFC0B822DFB0B822D000000003C2E5B
:100B16001B2E83160313ED0A0319EE0A03179C0115
:100B26009D010130B6001820013083160317B0006E
:100B36000130B100C830B2004D210B30FB00263029
:100B4600FC005D30FD00FD0BA62DFC0BA62DFB0B5E
:100B5600A62D0000000000302706031DB42D00302E
:100B66002606031DBD2D0130B0000130B100A030B6
:100B7600B2004D2100302706031DC32D0130260685
:100B8600031DCC2D0130B0000130B100AE30B200F3
:100B96004D21803003136E06F00080307002031D75
:100BA600D62D03306D02031CF62DED01EE0101304A
:100BB6000317B0000130B100D230B2004D2102302F
:100BC600B0000130B1001030B2004D211A30FB00E8
:100BD6005E30FC006E30FD00FD0BEF2DFC0BEF2DA3
:100BE600FB0BEF2D000003170130B6001820003074
:100BF600831603172706031D022E00302606031D43
:100C06000B2E0130B0000130B1001B30B2004D2177
:100C160000302706031D112E01302606031D1A2E4D
:100C26000130B0000130B100E130B2004D213C2E60
:100C36003C2E00301D06031D222E01301C06031912
:100C4600D42C00301D06031D2A2E02301C06031963
:100C5600DE2C00301D06031D322E03301C06031940
:100C6600E82C00301D06031D3A2E04301C0603191D
:060C7600F42C942A3D2E2F
:100EA00020308400473083120313F0009030831603
:100EB0000317AD000630AE008F21A03084004D3006
:100EC00083120313F000433083160317AD0006307E
:100ED000AE008F2110308317840019308312031362
:100EE000F000133083160317AD000730AE008F21DA
:100EF000831367308400083083120313F0004530F9
:100F000083160317AD000730AE008F2129308317F9
:100F100084003C3083120313F000D730831603178C
:100F2000AD000630AE008F218313ED308400023017
:100F300083120313F0004D3083160317AD00073002
:100F4000AE008F216530831784000B3083120313AA
:100F5000F0003A3083160317AD000730AE008F2142
:100F600083139030831784000E3083120313F00034
:100F70002C3083160317AD000730AE008F2183138A
:020F8000080067
:100C86005334493453342034533449344E342034A5
:0C0C9600413452344D34413452340034A7
:100CA2005334493453342034413452344D34413472
:080CB200523444344F34003485
:100CBA005334493453342034533449344E34203471
:0C0CCA00413452344D3441345234003473
:100CD6004E344F342034563441344C344934443441
:040CE6004F34003453
:100CEA003334203469346E34743465346E34743475
:0E0CFA006F3473342E342E342E342E340034E6
:100D08005334493453342034413452344D3441340B
:080D1800523444344F3400341E
:100D200049344E34543452344F3420344E344534E4
:100D3000573420344F34563445345A343A3400341E
:100D4000503461347334733477346F3472346434B0
:0E0D500020344D346F3464346934663400341A
:100D5E005034613473347334203431342034643479
:0A0D6E006934663420343234003456
:100D78005334493453342034533449344E342034B2
:0C0D8800413452344D34413452340034B4
:100D940049344E34543452344F3420344E34453470
:0A0DA4005734203450343A34003440
:100DAE00433441344D34203453344F344C344F3467
:100DBE00203445344E3420344434413452344D348E
:020DCE000034EF
:100DD00049346E34743465346E347434653420347C
:0E0DE0004E3475346534763461342E3400346C
:100DEE005334493453342034533449344E3420343C
:0C0DFE00413452344D344134523400343E
:100E0A005334493453342034533449344E3420341F
:0C0E1A00413452344D3441345234003421
:100E260041346C34613472346D34203442346C3461
:060E36006F34713400343A
:100E3C005334493453342034533449344E342034ED
:0C0E4C00413452344D34413452340034EF
:100E58005334493453342034413452344D344134BA
:080E6800523444344F340034CD
:040E70000034003416
:100E74005334493453342034413452344D3441349E
:060E840044344F34003439
:100E8A005334493453342034413452344D340034C9
:040E9A0000340034EC
:02400E004A2F37
:00000001FF
