:100000007BEF02F00000000000EF00F000000000B5
:0A0010000000000000000000F3D71C
:0C001C00100E0D6E0D2EFED7000012001D
:10002800080E0C6E230E0D6E0D2EFED70C2EFCD76F
:020038001200B4
:04003A0000001200B0
:10003E000201126B146B156B100E166F040E155D0C
:10004E0029E2F00E816E120E006E000E016E810E10
:10005E000024E16E0F0E0120E26E161D006E00C030
:10006E00E6FFE4DFE3DF0F0E8114006E00C013F233
:10007E0000520AE014C212F2135304E01333139F1A
:10008E00122BFAD7040E156F16371691040E14277D
:0A009E00152BD4D712C200F0120097
:0A00A800030E0D6E0D2EFED71200A0
:1000B200020112BF02D0839E01D0838E12BD02D0F4
:1000C200839C01D0838C12BB02D0839A01D0838A95
:1000D20012B902D0839801D0838807B102D08380FD
:1000E20001D083908382A8DF839212B702D0839ECD
:1000F20001D0838E12B502D0839C01D0838C12B3BF
:1001020002D0839A01D0838A12B102D0839801D09F
:10011200838807B102D0838001D0839083828CDFF1
:0E012200839207A102D07FDF01D077DF1200A9
:0E0130000201079111C212F2BCDF078112001A
:10013E000134083609360450085E0550D8A0053C37
:10014E00095E003601360F0E0C6E01340836093684
:10015E00045000A006D0085E0550D8A0053C095EEC
:10016E0005D008260550D8B0053C092600360136C4
:10017E000C2EEBD700B006D0045008260550D8B090
:08018E00053C092600001200E7
:1001960053DF00C011F20F0E8114006E02E081DF02
:0801A600FAD711C200F01200AB
:1001AE00120E006E000E016E810E0024E16E0F0E17
:0A01BE000120E26EFF0EE66E120053
:1001C8000900F5CFE6FF0006FBE10106F9E11200A0
:1001D800959295909598959A959C959E83928390E3
:1001E800839E839C839A83981BDF1ADF19DF838A97
:1001F800838883821EDF839213DF83821ADF8392D0
:100208000FDF838216DF83920BDF8398838211DFEF
:10021800839206DF83820DDF8392839A838E8382A3
:1002280008DF8392FDDE839E8388838202DF8392C8
:1002380083988382FEDE8392F3DE8382FADE8392E2
:1002480083888382F6DE8392EBDE83988382F1DEF5
:100258008392838E838C838A83888382EADE839267
:08026800DFDE02010781120034
:1002700010D0800E02010C6F1AD0C00E0C6F17D078
:10028000940E0C6F14D0D40E0C6F11D0800E0C6F26
:100290000ED002010C51010AECE00C51020AEDE013
:1002A0000C51030AEDE00C51040AEDE0EFD70D0507
:1002B000006E0C51002600C00CF200C012F2F9DEF4
:1002C0000791106B10510E25E96E000E0F21EA6E9A
:1002D000EE520BE010510E25E96E000E0F21EA6E72
:0E02E000EECF11F225DF102BEDD707811200B3
:1002EE0002010B6B51DF00C00BF21A0E0C6EF80EF2
:1002FE000D6E0D2EFED70C2EFCD7000030D04F0EFB
:10030E000B6F5DD0300E0B6F5AD03D0E0B6F57D06A
:10031E002B0E0B6F54D0310E0B6F51D0320E0B6F64
:10032E004ED0330E0B6F4BD02D0E0B6F48D0340EBC
:10033E000B6F45D0350E0B6F42D0360E0B6F3FD084
:10034E002D0E0B6F3CD0370E0B6F39D0380E0B6F56
:10035E0036D0390E0B6F33D02F0E0B6F30D00B51B2
:10036E00010ACDE00B51020ACDE00B51030ACDE09C
:10037E000B51040ACDE00B51050ACDE00B51060AD4
:10038E00CDE00B51070ACDE00B51080ACDE00B5121
:10039E00090ACDE00B510A0ACDE00B510B0ACDE054
:1003AE000B510C0ACDE00B510D0ACDE00B510E0A8C
:1003BE00CDE00B510F0ACDE00B51100ACDE00BC270
:0403CE0000F0120029
:1003D20010D0800E02010C6F1AD0C00E0C6F17D015
:1003E200940E0C6F14D0D40E0C6F11D0800E0C6FC3
:1003F2000ED002010C51010AECE00C51020AEDE0B0
:100402000C51030AEDE00C51040AEDE0EFD70D05A3
:10041200006E0C51002600C00CF2078100C012F2DF
:0E04220047DE07910EC212F243DE0781120080
:100430000450000A08E10550000A05E1FF0E006EB5
:100440007F0E016E57D00D6A096A086A01500010CC
:10045000D8B4000C015005180A6E0ABE0D1E0B6AB6
:1004600005AE05D0041E051E042AD8B4052A01AE27
:1004700005D0001E011E002AD8B4012A0150051023
:100480000A6E0ABE10D05BDE0BB020D00DAE000CA1
:10049000001E011E002AD8B4012A081E091E082ABF
:1004A000D8B4092A000C05AE0DD001BE07D001500A
:1004B000096E0050086E016A006AE8D7016A006A96
:1004C000002A000C011E001E0B2ADDD7082AD8B412
:1004D000092A0450085CD8A4D9D70550095CD8A4CF
:1004E000D5D7096A086A002AD8B4012A01AECED746
:0604F0000000FF0C1200E9
:1004F60005EC09F00F0EC16EC70ED56E946A958491
:100506009586826A66DE0C0E126FD0DD4DDE010125
:10051600FC6BFD6B0201096B0A6B010E0C6F010E81
:100526000D6FEE0E0E6F010E0F6F9FDE020E0C6F3B
:10053600010E0D6FFE0E0E6F010E0F6F96DE83A479
:1005460000D0000E83B4010E0001A76FA86B1A0E2F
:100556000C6EF80E0D6E0D2EFED70C2EFCD700007D
:1005660083A600D0000E83B6010EA96FAA6B1A0EE1
:100576000C6EF80E0D6E0D2EFED70C2EFCD700005D
:10058600000E02010A1902E1010E0919D8A480D051
:1005960000018251AC5D02E18151AB5D31E2020E98
:1005A600046E000E056EABC000F0ACC001F03DDF7E
:1005B60008C000F009C001F0000E011802E1000EAB
:1005C60000181EE18292410E0C6EEE0E0D6E0D2E7F
:1005D600FED70C2EFCD700008282040E02010C6F9F
:1005E600010E0D6F830E0E6F000E0F6F3EDE410E75
:1005F6000C6EEE0E0D6E0D2EFED70C2EFCD70000E7
:100606000001AC51821902E18151AB190AE1040ED5
:1006160002010C6F010E0D6F940E0E6F000E0F6F20
:1006260024DE000E0001AA1902E1010EA91907E055
:10063600000EA81902E1010EA71901E028D0825187
:10064600AC5D02E18151AB5D22E3010ECA6F000E83
:10065600CB6FA76BA86BA96BAA6B010ECC6F000EB4
:10066600CD6F010E0201126F21DD010E0C6F010E1E
:100676000D6FCE0E0E6F000E0F6FF7DD020E0C6FB4
:10068600010E0D6FAD0E0E6F000E0F6FEEDD08D072
:100696000201000E0A1902E1000E0919D8B482906F
:1006A600000E0001CB1902E1010ECA1939E1B64B61
:1006B600B72B8251B75D02E18151B65D31E2020E80
:1006C600046E000E056EB6C000F0B7C001F0ADDED8
:1006D60008C000F009C001F0000E011802E1000E8A
:1006E60000181EE18292410E0C6EEE0E0D6E0D2E5E
:1006F600FED70C2EFCD700008282040E02010C6F7E
:10070600010E0D6FB80E0E6F000E0F6FAEDD410EAF
:100716000C6EEE0E0D6E0D2EFED70C2EFCD70000C5
:10072600000E0001CD1902E1010ECC1903E1010111
:10073600FC4BFD2B00018251B75D02E18151B65D94
:1007460024E3CA6BCB6BB66BB76B82800101FC6B83
:10075600FD6B010E02010C6F010E0D6F750E0E6F13
:10076600000E0F6F82DD020E0C6F010E0D6F260E4E
:100776000E6F000E0F6F79DD040E0C6F010E0D6FFC
:100786002F0E0E6F000E0F6F70DD0101FD5100017F
:10079600821903E181510101FC1907E101018290EF
:1007A600FC6BFD6B0001CC6BCD6B0001AB4BAC2B36
:1007B6009BDD00C00BF2270E0C6EF50E0D6E0D2E96
:1007C600FED70C2EFCD70B53D8B4B9D60B51300A32
:1007D6001CE00B51310A19E00B51320A16E00B519D
:1007E600330A13E00B51340A10E00B51350A0DE0C1
:1007F6000B51360A0AE00B51370A07E00B51380A4B
:1008060004E00B51390A01E05CD13A0E1524E16E81
:10081600000E1620E26E0BC2E6FF020E0C6F0A0EE9
:1008260015240D6F2A0E0E6FD1DD154A162A000EFD
:10083600161802E1040E1518D8A443D1010E126F42
:1008460035DC010E0C6F010E0D6F170E0E6F000ECC
:100856000F6F0BDD156A166A800E006E800E161875
:10086600005C02E1155003082BE3210E1524E96E06
:10087600000E1620EA6E3A0E1524D96E000E1620CA
:10088600DA6EEE50DE1803E00001634B642B020EB5
:1008960002010C6F1550010F0D6F2A0E0E6F96DDBB
:1008A600020E0B6E040E0C6EBA0E0D6E0D2EFED7DA
:1008B6000C2EFCD70B2EFAD70000154A162ACCD7D9
:1008C600000E0001641902E1000E63194AE1000EF0
:1008D60002010A1902E1010E09191FE10001656B07
:1008E600666B82920201096B0A6B010E126F59EC5C
:1008F60000F0010E0C6F010E0D6F670E0E6F000EED
:100906000F6FB3DC820E0C6EDD0E0D6E0D2EFED754
:100916000C2EFCD70000000023D00001656B666B2F
:10092600010E0201096F000E0A6F8282010E126F1C
:1009360059EC00F0010E0C6F010E0D6F3F0E0E6F9D
:10094600000E0F6F92DC820E0C6EDD0E0D6E0D2EFC
:10095600FED70C2EFCD7000000000001AB6BAC6B81
:100966006ED00001654B662B010E0201126F59EC29
:1009760000F0010E0C6F010E0D6F4A0E0E6F000E89
:100986000F6F73DC0B0E0B6E260E0C6E5D0E0D6E6E
:100996000D2EFED70C2EFCD70B2EFAD7000000002A
:1009A600800E00016619006E800E005C02E1030EE7
:1009B600655D22E3656B666B010E02010C6F010E2D
:1009C6000D6F540E0E6F000E0F6F4FDC020E0C6F84
:1009D600010E0D6F960E0E6F010E0F6F46DC1A0E8E
:1009E6000B6E5E0E0C6E6E0E0D6E0D2EFED70C2E61
:1009F600FCD70B2EFAD700000201010E126F59EC3C
:100A060000F0000E0A1902E1000E091909E1010EB3
:100A16000C6F010E0D6FA10E0E6F010E0F6F25DC10
:100A2600000E0A1902E1010E091909E1010E0C6F07
:100A3600010E0D6FAF0E0E6F010E0F6F16DC060E58
:100A46000B6E130E0C6EAD0E0D6E02010D2EFDD744
:100A56000C2EFBD70B2EF9D700000000010E126FEB
:100A660059EC00F0000E0A1902E1000E09190AE11C
:100A7600010E0C6F010E0D6F730E0E6F010E0F6FD0
:100A860038EC01F0000E0A1902E1010E09190AE11B
:100A9600010E0C6F010E0D6F810E0E6F010E0F6FA2
:100AA60038EC01F0020E0C6F010E0D6F8D0E0E6FFD
:100AB600010E0F6F38EC01F0156A166A0001636BC0
:100AC600646B02010B514F0AD8A4A0D2000E0A197A
:100AD60002E1000E0919D8A443D2010E126F59EC97
:100AE60000F0156A166A800E006E800E1618005CFD
:100AF60002E1155003082BE3010E0C6F010E0D6F7A
:100B0600DD0E0E6F010E0F6F38EC01F077EC01F081
:100B160000C008F2270E0C6EF50E0D6E0D2EFED7D8
:100B26000C2EFCD70853F2E0020E0C6F1550010F85
:100B36000D6F580E0E6F4ADC3A0E1524E16E000E4C
:100B46001620E26E08C2E6FF154A162ACCD73A509E
:100B56000101E919D8A4D2D13B50EA19D8A4CED1C3
:100B66003C50EB19D8A4CAD13D50EC19D8A4C6D133
:100B7600010E0201126F59EC00F0010E0C6F010E0E
:100B86000D6FBB0E0E6F010E0F6F38EC01F00101F9
:100B9600FC6BFD6B0101800EFD19006E800E005C82
:100BA60002E1000EFC5DD8A085D0800EFD19006E16
:100BB600800E005C02E1040EFC5DD8B07BD077ECC1
:100BC60001F000C008F2270E0C6EF50E0D6E0D2E0C
:100BD600FED70C2EFCD70853F2E00851300A1CE071
:100BE6000851310A19E00851320A16E00851330A51
:100BF60013E00851340A10E00851350A0DE0085197
:100C0600360A0AE00851370A07E00851380A04E0B4
:100C16000851390A01E04DD030D00201020E0C6FA6
:100C2600010E0D6F08C20EF2E9EC01F008C23AF0AF
:100C36003DD00201020E0C6F020E0D6F08C20EF2BD
:100C4600E9EC01F008C23BF031D00201020E0C6F54
:100C5600030E0D6F08C20EF2E9EC01F008C23CF07B
:100C660025D00201020E0C6F040E0D6F08C20EF2A3
:100C7600E9EC01F008C23DF019D0000E0101FD19A2
:100C860002E1000EFC19C9E0000EFD1902E1010E99
:100C9600FC19CFE0000EFD1902E1020EFC19D5E0A9
:100CA600000EFD1902E1030EFC19DBE00101FC4B0D
:100CB600FD2B70D7010E0201126F59EC00F0010EE8
:100CC6000C6F010E0D6FC80E0E6F010E0F6F38EC14
:100CD60001F00101FC6BFD6B0101800EFD19006E38
:100CE600800E005C02E1000EFC5DD8A085D0800E6F
:100CF600FD19006E800E005C02E1040EFC5DD8B0AA
:100D06007BD077EC01F000C008F2270E0C6EF50ED2
:100D16000D6E0D2EFED70C2EFCD70853F2E00851AF
:100D2600300A1CE00851310A19E00851320A16E06F
:100D36000851330A13E00851340A10E00851350A05
:100D46000DE00851360A0AE00851370A07E0085153
:100D5600380A04E00851390A01E04DD030D00201CA
:100D6600020E0C6F010E0D6F08C20EF2E9EC01F0D7
:100D760008C2D8F13DD00201020E0C6F020E0D6FB3
:100D860008C20EF2E9EC01F008C2D9F131D0020135
:100D9600020E0C6F030E0D6F08C20EF2E9EC01F0A5
:100DA60008C2DAF125D00201020E0C6F040E0D6F97
:100DB60008C20EF2E9EC01F008C2DBF119D0000E10
:100DC6000101FD1902E1000EFC19C9E0000EFD1932
:100DD60002E1010EFC19CFE0000EFD1902E1020E40
:100DE600FC19D5E0000EFD1902E1030EFC19DBE04B
:100DF6000101FC4BFD2B70D7010E0201126F59EC5D
:100E060000F03A500101D81944E13B50D91941E1AB
:100E16003C50DA193EE13D50DB193BE1010E02017F
:100E2600126F59EC00F0156A166A800E1618006EDD
:100E3600800E005C02E1040E155C11E2210E152401
:100E4600E16E000E1620E26E3A0E1524E96E000ED3
:100E56001620EA6EEECFE6FF154A162AE6D70201FD
:100E6600010E0C6F010E0D6F640E0E6F010E0F6FEB
:100E760038EC01F0100E0B6E390E0C6E0D0E0D6E69
:100E86000D2EFED70C2EFCD70B2EFAD70000000035
:100E960027D00201010E126F59EC00F0010E0C6F03
:100EA600010E0D6FFD0E0E6F000E0F6F38EC01F088
:100EB600020E0C6F010E0D6F0A0E0E6F010E0F6FF4
:100EC60038EC01F0100E0B6E390E0C6E0D0E0D6E19
:100ED6000D2EFED70C2EFCD70B2EFAD700000000E5
:100EE600010E126F59EC00F0010E0C6F010E0D6F22
:100EF600190E0E6F010E0F6F38EC01F00201156A24
:100F0600166A010E126F59EC00F0000E0A1902E182
:100F1600000E09190AE1010E0C6F010E0D6FDA0EB3
:100F26000E6F000E0F6F38EC01F0000E0A1902E189
:100F3600010E09190AE1010E0C6F010E0D6FE80E84
:100F46000E6F000E0F6F38EC01F0020E0C6F010EE3
:100F56000D6FF40E0E6F000E0F6F38EC01F056D0C9
:100F6600156A166A010E126F59EC00F0010E0C6F2D
:100F7600010E0D6F3C0E0E6F010E0F6F38EC01F077
:100F8600020E0C6F010E0D6F450E0E6F010E0F6FE8
:100F960038EC01F0100E0B6E390E0C6E0D0E0D6E48
:100FA6000D2EFED70C2EFCD70B2EFAD70000000014
:100FB600010E126F59EC00F0000E0A1902E1000E44
:100FC60009190AE1010E0C6F010E0D6F560E0E6F18
:100FD600010E0F6F38EC01F0000E0A1902E1010E46
:100FE60009190AE1010E0C6F010E0D6F270E0E6F27
:100FF600010E0F6F38EC01F0020E0C6F010E0D6F33
:10100600330E0E6F010E0F6F38EC01F0A2EF02F0F7
:02101600FFD702
:10120A0010EE15F0F20E006E020E016E180EF66E5A
:0E121A00100EF76E000EF86EE4EC00F01200FD
:021018000000D6
:0A101A0056414C4944414E444F003A
:051024003139373200F4
:09102900434F4E5452413A20009D
:0B103200414C41524D41212121210081
:05103D0020000000008E
:0B1042005349532041524D41444F00E0
:0A104D004E4F2056414C49444F001D
:0F1057003320696E74656E746F732E2E2E2E000B
:02106600000088
:02106800000086
:0E106A005349532053494E2041524D415200EC
:0C1078005349532041524D4152444F0057
:02108400C800A2
:1010860041524D414E444F2053495354454D412101
:011096000059
:10109700524556495A414E444F2053454E534F529D
:0310A700455300AE
:0210AA00000044
:0210AC00000042
:0210AE00000040
:0910B000434F4E5452413A200016
:0210B900000035
:1010BB0053454E534F52204142494552544F2121E3
:0210CB00210002
:0210CD00000021
:0210CF0000001F
:0C10D1005349532041524D4152444F00FE
:0E10DD005349532053494E2041524D41520079
:0C10EB005349532041524D4152444F00E4
:0910F700434F4E5452413A2000CF
:0D1100005061737320312064696620320055
:0F110D00496E74656E7465204E756576612E00AF
:0E111C005349532053494E2041524D41520039
:0C112A005349532041524D4152444F00A4
:09113600434F4E5452413A20008F
:09113F00205349532041524D0098
:101148004E4F205345205055454445204D4F44218E
:011158000096
:0E1159005349532053494E2041524D415200FC
:0F11670050617373776F7264204D6F6469660017
:0E1176005349532053494E2041524D415200DF
:0C1184005349532041524D4152444F004A
:09119000434F4E5452413A200035
:0B119900416C61726D20426C6F7100B0
:0E11A4005349532053494E2041524D415200B1
:0C11B2005349532041524D4152444F001C
:0D11BE00494E54524F204E455720503A00E4
:1011CB00494E54524F204E4557204F56455A3A00E0
:0511DB002000000000EF
:0C11E00050415353574F5244204D3F00E4
:0511EC0030303030003E
:0E11F1005349532053494E2041524D41520064
:0211FF000000EE
:09120100434F4E5452413A2000C3
:020000040030CA
:0E000000000C1F1EFF8381FF0FC00FE00F409A
:00000001FF
