:040000008A15002835
:0400060000000800EE
:10000A00083083120313FC002330FD00FD0B0B287C
:06001A00FC0B0B2808009E
:10002000103083120313FD00FD0B1428000008009C
:1000300083160317A31B20288312031306122328F9
:1000400083120313061683160317231B2B28831210
:10005000031386112E2883120313861583160317A4
:10006000A31A3628831203130611392883120313A7
:10007000061583160317231A4128831203138610CB
:1000800044288312031386148316031716184C286A
:100090008312031386164F28831203138612061742
:1000A0000320061383160317A3195A288312031378
:1000B00006125D28831203130616831603172319ED
:1000C000652883120313861168288312031386158B
:1000D00083160317A31870288312031306117328BD
:1000E0008312031306158316031723187B28831224
:1000F000031386107E2883120313861483160317B6
:100100001618862883120313861689288312031370
:10011000861206170320061383160317161C92284F
:080120000520932810200800BF
:10012800831603179E01A001A1011030A20004301C
:1001380021020318CD28F030831203138800803081
:10014800F0007008083E8400831603172209F000A7
:1001580070088000032003200F3083120313080562
:10016800F0007008831603179F0070080319C7284A
:1001780020089E001F080319C5289F0C9F139E0A7C
:10018800BE280430A100A20D22100430A007A10A45
:080198009B281E08F00008007E
:0E01A000033083120313FD00FD0BD42808006A
:1001AE008316031716101E08A300182083160317B4
:0401BE00161408000B
:0E01C2008316031718088A0017088200080029
:1001D000831203137008F100F0010830FC0071086D
:1001E000F40C0318F728FC0BF028F101003403107D
:1001F000FC28F40C0318F107F10CF00CFC0BF928A7
:020200000800F4
:10020200803083120313F0007008083E8400FF3030
:040212008000080060
:10021600831603171A0883128D0083168C130C1489
:0802260083120C08F00008002F
:10022E0029298030831603179A003C29C0309A0082
:10023E003C2994309A003C29D4309A003C298030D5
:10024E009A003C29831603171A08013A0319182934
:10025E001A08023A03191D291A08033A031920290C
:10026E001A08043A0319232926291B03F0001A0839
:10027E00F00770089A007008A30018208316031761
:10028E0016109D011D081C0784000008031957292C
:10029E001D081C07840000089E00D7209D0A4929CE
:0402AE00161408001A
:1002B2008316031306138612861006118611061280
:1002C2008312061386120612861106118610052065
:1002D200052005200615861406170320061305209F
:1002E2000617032006130520061703200613052010
:1002F200861006170320061305200617032006138F
:100302000611061606170320061305200612861488
:10031200061703200613861006170320061305206E
:10032200061703200613861406170320061305205A
:100332008610061703200613061686150615861460
:100342000617032006130520831603171614080048
:10035200BB298030831603179A00CE29C0309A0039
:10036200CE2994309A00CE29D4309A00CE298030FA
:100372009A00CE29831603171A08013A0319AA29EB
:100382001A08023A0319AF291A08033A0319B229C3
:100392001A08043A0319B529B8291B03F0001A08F0
:1003A200F00770089A0016147008A300182083162C
:1003B200031716101C08A30018208316031716141F
:0203C200080031
:1003C400942070089A000F30831203130805F0007C
:1003D4000319EE29D020E529831603171A08F00023
:0203E40008000F
:1003E600E1208A110A128000840A970A0319980AE2
:0803F600F003031DF3290800C8
:1003FE00831603171A08F100342A4F30F000742ABE
:10040E003030F000742A3D30F000742A2B30F000AA
:10041E00742A3130F000742A3230F000742A3330EE
:10042E00F000742A2D30F000742A3430F000742A53
:10043E003530F000742A3630F000742A2A30F0007D
:10044E00742A3730F000742A3830F000742A3930AC
:10045E00F000742A2F30F000742A7108013A031943
:10046E00042A7108023A0319072A7108033A03197C
:10047E000A2A7108043A03190D2A7108053A03195C
:10048E00102A7108063A0319132A7108073A03193C
:10049E00162A7108083A0319192A7108093A03191C
:1004AE001C2A71080A3A03191F2A71080B3A0319FC
:1004BE00222A71080C3A0319252A71080D3A0319DC
:1004CE00282A71080E3A03192B2A71080F3A0319BC
:0C04DE002E2A7108103A0319312A080078
:1004EA00831603178C1C7B2A0000752A1A088312AC
:1004FA008D0083161B0883128C0083168C130C152F
:10050A000B08F0008B1355308D00AA308D008C1427
:0E051A00F01B912A8B13922A8B170C110800EC
:10070C0020308400453083120313F000943083169C
:10071C000317970002309800F321A03084001D309D
:10072C0083120313F0004130831603179700033034
:10073C009800F321653084000B3083120313F00012
:10074C007B3083160317970003309800F321BD30DC
:10075C008400253083120313F0001C30831603171A
:10076C00970003309800F3211030831784000F306A
:10077C0083120313F0005E308316031797000330C7
:10078C009800F3218313E23084000E30831203139C
:10079C00F0006D3083160317970003309800F32197
:1007AC001F3083178400433083120313F000D930B9
:1007BC0083160317970002309800F3218313080067
:101000008A1186238A158316031306108613071781
:101010008717831206108A1101218A158A11592116
:101020008A150130A3008A1118208A150C30831606
:101030000317A3008A1118208A15831603179A0133
:1010400031309B008A1175228A1501309A0039309F
:101050009B008A1175228A1502309A0037309B0056
:101060008A1175228A1503309A0032309B008A114A
:1010700075228A1504309A0030309B008A1175223F
:101080008A1505309A0030309B008A1175228A1526
:1010900006309A0030309B008A1175228A1507307D
:1010A0009A0030309B008A1175228A1508309A0008
:1010B000831203135708831603179B008A117522A6
:1010C0008A1583120313D901DA010317ED01EE012A
:1010D000013083169A0001309B0049309C008A1130
:1010E00017218A158A11E2218A1570088312EF00F0
:1010F0004130FC00EE30FD00FD0B7C28FC0B7C2811
:1011000000006F0883169A008A11FF218A15700863
:101110008312EF00023083169A000E309B00700895
:101120009C008A11A9218A1583126F084F3A03196E
:101130009E286F083D3A03199E28392B6F084F3AB5
:10114000031D142B5A30EF0083169001910180305B
:10115000F000803011067002031DB0281008033C17
:10116000031CF3280130A3008A1118208A150130CE
:10117000831603179A0001309B0020309C008A11CF
:1011800017218A158A11E2218A1570088312EA0054
:101190004130FC00EE30FD00FD0BCC28FC0BCC28D0
:1011A00000006A080319C2286A0883169A008A1187
:1011B000FF218A1570088312EA0083161008623E28
:1011C00084007008800002309A00100A9B0010080A
:1011D000623E840000089C008A11A9218A15900AA9
:1011E0000319910AA728900191018030F000803006
:1011F00011067002031DFE281008033C031C12296F
:101200001008663E9900043010079A008A110B21DD
:101210008A1583161908840070088000900A031943
:10122000910AF528831266086206031D142B6708CD
:101230006306031D142B68086406031D142B69083C
:101240006506031D142B01308316A3008A11182094
:101250008A150130831603179A0001309B003C3039
:101260009C008A1117218A15803083126C06F000C9
:1012700080307002031D3E2900306B02031CCE2912
:1012800080306C06F00080307002031D4929043064
:101290006B020318CE298A11E2218A157008831285
:1012A000EA000230FB008630FC009930FD00FD0BA7
:1012B0005729FC0B5729FB0B57296A0803194B299F
:1012C0006A0883169A008A11FF218A157008831212
:1012D000EA00AA29023083169A0001309B0083128B
:1012E0006A0883169C008A11A9218A1583126A084C
:1012F000E600CA29023083169A0002309B0083124E
:101300006A0883169C008A11A9218A1583126A082B
:10131000E700CA29023083169A0003309B0083122B
:101320006A0883169C008A11A9218A1583126A080B
:10133000E800CA29023083169A0004309B00831209
:101340006A0883169C008A11A9218A1583126A08EB
:10135000E900CA2900306C06031DB02900306B0675
:1013600003196A2900306C06031DB82901306B0689
:1013700003197A2900306C06031DC02902306B0660
:1013800003198A2900306C06031DC82903306B0637
:1013900003199A29EB0A0319EC0A34290130831640
:1013A000A3008A1118208A150130831603179A00AA
:1013B00001309B002C309C008A1117218A15831262
:1013C000EB01EC0180306C06F00080307002031DF0
:1013D000EB2900306B02031C812A80306C06F00080
:1013E00080307002031DF62904306B020318812A35
:1013F0008A1194208A1570088312EA000230FB00DB
:101400008630FC009930FD00FD0B042AFC0B042AF9
:10141000FB0B042A6A080319F8296A0883169A0044
:101420008A11FF218A1570088312EA005B2A0230B4
:1014300083169A0001309B0083126A0883169C0071
:101440008A11A9218A1583126A08831692007C2AC0
:10145000831602309A0002309B0083126A088316BA
:101460009C008A11A9218A1583126A0883169300A9
:101470007C2A831602309A0003309B0083126A088C
:1014800083169C008A11A9218A1583126A08831683
:1014900094007C2A831602309A0004309B00831249
:1014A0006A0883169C008A11A9218A1583126A088A
:1014B000831695007C2A003083126C06031D622A75
:1014C00000306B060319172A00306C06031D6A2AC8
:1014D00001306B060319282A00306C06031D722A9E
:1014E00002306B060319392A00306C06031D7A2A74
:1014F00003306B0603194A2A8312EB0A0319EC0A1C
:10150000E22901308316A3008A1118208A150317D7
:10151000660883161206031DCD2A831267088316F8
:101520001306031DCD2A0130A3008A1118208A1545
:10153000831603179001910180301106F00080306E
:101540007002031DA52A043010020318B52A1008E2
:101550009A001008663E840000089B008A117522DC
:101560008A15900A0319910A9C2A01309A000130C9
:101570009B001F309C008A1117218A151030FB0038
:101580003930FC000D30FD00FD0BC42AFC0BC42AD1
:10159000FB0BC42A00000000F42A0130A3008A11CA
:1015A00018208A150130831603179A0001309B001A
:1015B0002E309C008A1117218A1502309A000130C2
:1015C0009B0010309C008A1117218A151030FB00F7
:1015D0003930FC000D30FD00FD0BEC2AFC0BEC2A31
:1015E000FB0BEC2A000000000130A3008A11182038
:1015F0008A150130831603179A0001309B00E230F0
:101600009C008A1117218A151A30FB005E30FC00FD
:101610006E30FD00FD0B0A2BFC0B0A2BFB0B0A2B7B
:1016200000008312EB01EC0100306E06031D1A2B43
:1016300000306D06031D262B013083169A00013001
:101640009B0048309C008A1117218A1500308312B4
:101650006E06031D2D2B01306D06031D392B013045
:1016600083169A0001309B0056309C008A11172186
:101670008A1583126F08303A0319632B6F08313AC9
:101680000319632B6F08323A0319632B6F08333A3F
:101690000319632B6F08343A0319632B6F08353A2B
:1016A0000319632B6F08363A0319632B6F08373A17
:1016B0000319632B6F08383A0319632B6F08393A03
:1016C0000319632BCE2C01308316A3008A11182036
:1016D0008A1583160317900191018030F000803045
:1016E00011067002031D762B1008033C031CC62B49
:1016F00001309A0001309B003B309C008A11172179
:101700008A154130FC00EE30FD00FD0B852BFC0BF3
:10171000852B00008A11E2218A1570088312EF00E0
:101720004130FC00EE30FD00FD0B942BFC0B942BA4
:1017300000006F0803198A2B6F0883169A008A111C
:10174000FF218A1570088312EF00023083169A0079
:101750000E309B0070089C008A11A9218A15100880
:10176000923E840083126F088000023083169A0034
:10177000100A9B001008923E840000089C008A1109
:10178000A9218A15900A0319910A6D2B0130A30033
:101790008A1118208A158316031790019101803051
:1017A000F000803011067002031DD82B1008033C96
:1017B000031CEB2B1008663E990010089A008A1152
:1017C0000B218A1583161908840070088000900A7E
:1017D0000319910ACF2B8312660883161206031D84
:1017E000512C8312670883161306031D512C831294
:1017F000680883161406031D512C8312690883168A
:101800001506031D512C003083126E06031D0A2C91
:1018100001306D06031D2D2CC601C7018613ED0195
:10182000EE0101308316A3008A1118208A150130B9
:10183000831603179A0001309B00AF309C008A1179
:1018400017218A158230FC00DD30FD00FD0B262CAF
:10185000FC0B262C00000000502C8312C601C7018F
:101860000130ED000030EE00861701308316A30032
:101870008A1118208A150130831603179A00013047
:101880009B0065309C008A1117218A158230FC006C
:10189000DD30FD00FD0B4A2CFC0B4A2C0000000043
:1018A000CE2C8312C60A0319C70A01308316A3007F
:1018B0008A1118208A150130831603179A00013007
:1018C0009B005B309C008A1117218A150B30FB00AE
:1018D0002630FC005D30FD00FD0B6C2CFC0B6C2CED
:1018E000FB0B6C2C00000000803083124706F000D8
:1018F00080307002031D7E2C03304602031CA22C94
:10190000C601C701013083169A0001309B00A03048
:101910009C008A1117218A1502309A0001309B0021
:10192000C9309C008A1117218A151A30FB005E30DD
:10193000FC006E30FD00FD0B9B2CFC0B9B2CFB0B6D
:101940009B2C000083160130A3008A1118208A15F1
:10195000003003176E06031DAF2C00306D06031D0B
:10196000BB2C013083169A0001309B00D4309C00C0
:101970008A1117218A15003083126E06031DC22CAE
:1019800001306D06031DCE2C013083169A00013004
:101990009B00BD309C008A1117218A1500308312EC
:1019A0006E06031DD52C00306D06031DD82C0610C5
:1019B00000306E06031DDE2C01306D06031D052D63
:1019C0000313071BE62C871BE62CE72C06140830B4
:1019D000831603179A008A110B218A156430F400CC
:1019E0008A11E8208A1580305A06F200803071068C
:1019F0007202031DFD2C70085902031C022DD9012F
:0E1A0000DA010610D90A0319DA0A7228062D37
:10052800503441345334533457344F3452344434B0
:0805380020344D343F3400343F
:1005400049344E34543452344F3420344E344534CC
:10055000573420344F34563445345A343A34003406
:1005600049344E34543452344F3420344E344534AC
:0A0570005734203450343A3400347C
:10057A005334493453342034533449344E342034B8
:0C058A00413452344D34413452340034BA
:0405960006340034F3
:04059A0000340034F5
:10059E004E344F342034563441344C344934443480
:0405AE004F34003492
:1005B200503461347334733477346F347234643446
:0E05C20020344D346F346434693466340034B0
:1005D000503461347334733420343134203464340F
:0A05E00069346634203432340034EC
:1005EA00503441345334533457344F3452344434EE
:0605FA003F343A340034E6
:04060000003400348E
:100604005334493453342034533449344E3420342D
:0C061400413452344D344134523400342F
:100620005334493453342034413452344D344134FA
:08063000523444344F3400340D
:100638005334493453342034413452344D344134E2
:08064800523444344F340034F5
:1006500041346C34613472346D34203442346C343F
:060660006F347134003418
:100666005334493453342034533449344E342034CB
:0C067600413452344D34413452340034CD
:100682003334203469346E34743465346E347434E3
:0E0692006F3473342E342E342E342E34003454
:1006A0005334493453342034533449344E34203491
:0C06B000413452344D3441345234003493
:1006BC0049346E34743465346E3474346534203497
:0E06CC004E3475346534763461342E34003487
:1006DA005334493453342034533449344E34203457
:0C06EA00413452344D3441345234003459
:1006F6005334493453342034413452344D34413424
:0607060044344F340034BE
:02400E004A2F37
:00000001FF
