:02000000E029F5
:0400060000000800EE
:10000A00103083120313FD00FD0B092800000800BD
:10001A00083083120313FC002330FD00FD0B132864
:06002A00FC0B1328080086
:1000300083120313B41B1E2886111F288615341B38
:100040002328061124280615B41A282886102928E2
:100050008614341A2D2806102E2806142718322844
:10006000061633280612861603208612B4193A287B
:1000700086113B28861534193F280611402806159D
:10008000B4184428861045288614341849280610C8
:100090004A28061427184E2806164F2806128616D8
:1000A00003208612271C56280D20572805200800FB
:0E00B0008312031329088A0028088200080022
:1000BE0083120313AF01B101B2011030B30004304B
:1000CE00320203189028F03088008030F00070085B
:1000DE00083E84003309F0007008800003200320DE
:1000EE000F300805F0007008B000700803198A2858
:1000FE003108AF00300803198828B00CB013AF0ACE
:10010E0081280430B200B30D33100430B107B20AA7
:08011E0066282F08F00008001C
:100126008312031327102F08B40018202714080081
:10013600AD28803083120313AB00C028C030AB005B
:10014600C0289430AB00C028D430AB00C028803023
:10015600AB00C028831203132B08013A03199C280D
:100166002B08023A0319A1282B08033A0319A428DD
:100176002B08043A0319A728AA282C03F0002B08F9
:10018600F0077008AB0027147008B4001820271079
:0A0196002D08B400182027140800FB
:1001A000E228803083120313AB00F528C030AB0087
:1001B000F5289430AB00F528D430AB00F52880301A
:1001C000AB00F528831203132B08013A0319D12839
:1001D0002B08023A0319D6282B08033A0319D92809
:1001E0002B08043A0319DC28DF282C03F0002B0825
:1001F000F0077008AB007008B40018202710AE019B
:100200002E082D078400000803190E292E082D073B
:1002100084000008AF009320AE0A002927140800CC
:100220005F2044294F30F00085293030F0008529C7
:100230003D30F00085292B30F00085293130F00069
:1002400085293230F00085293330F00085292D30A2
:10025000F00085293430F00085293530F0008529FB
:100260003630F00085292A30F00085293730F0003B
:1002700085293830F00085293930F00085292F3064
:10028000F0008529F00185297008013A0319122927
:100290007008023A031915297008033A031918293E
:1002A0007008043A03191B297008053A03191E291E
:1002B0007008063A031921297008073A03192429FE
:1002C0007008083A031927297008093A03192A29DE
:1002D00070080A3A03192D2970080B3A03193029BE
:1002E00070080C3A0319332970080D3A031936299E
:1002F00070080E3A0319392970080F3A03193C297E
:0C0300007008103A03193F294229080038
:10030C008316031386120612061086100611861128
:10031C0083128612061286110611861006100D2005
:10032C000D200D20861406148616032086120D202F
:10033C008616032086120D208616032086120D20A9
:10034C0006108616032086120D20861603208612B0
:10035C00861086158616032086120D20861106142B
:10036C0086160320861206108616032086120D2090
:10037C0086160320861206148616032086120D207C
:10038C00061086160320861286150615861406148A
:0C039C008616032086120D20271408008E
:1003A80058208A110A128000840AA80A0319A90A87
:0803B800F003031DD429080025
:1003C000543083120313A0006530A1006330A200F3
:1003D0006C30A3006130A4003A30A500A60186214C
:1003E0000C30B40018200130AB000130AC002030DC
:1003F000AD00D02010217008AA003430FC00F1308C
:10040000FD00FD0B012AFC0B012A000000002A0858
:100410000319FA290230AB000130AC002A08AD0004
:100420009B203430FC00F130FD00FD0B152AFC0B45
:0A043000152A00000000FA291C2A1A
:02400E004A2F37
:00000001FF
