:020000001528C1
:0C000600831213088A0012088200080010
:1000120003208A110A128000840A920A0319930AA1
:08002200C003031D09280800BA
:10002A00013083128C008D018E0101308F00900106
:10003A009101013083168500860183128601051C11
:10004A00492800301106031D2C2800301006031D14
:10005A0049283430CC00F130CD00CD0B3228CC0BFE
:10006A00322800000000051C3B2838280130900087
:10007A000030910001308C0000308D0000308E007D
:10008A0001308F0001308600051C622800301106FD
:10009A00031D512801301006031D62283430CC009C
:1000AA00F130CD00CD0B5728CC0B572800000000AB
:1000BA00051C60285D289001910100301106031D7E
:1000CA00682801301006031DB92800300D02031DEF
:1000DA00702801300C02031C962801300D02031D02
:1000EA00782800300C02031896280C0886008C0D1C
:1000FA008D0D0C108230CC00DD30CD00CD0B832865
:10010A00CC0B8328000000000D08013A031D8F283C
:10011A0000300C06031D952800308E0001308F0038
:10012A00B9280E08C0000F08C100C10CC00CC113C9
:10013A0040088E0041088F00400886008230CC00BB
:10014A00DD30CD00CD0BA728CC0BA728000000007E
:10015A0000300F06031DB32801300E06031DB9280F
:0C016A0001308C0000308D002428BA28E1
:02400E00FA3F77
:00000001FF
