:020000001528C1
:0C00060083120F088A000E088200080018
:1000120003208A110A128000840A8E0A03198F0AA9
:08002200C003031D09280800BA
:10002A0083128C018D0101308316850086018312AB
:10003A008601051C3A2800300D06031D26280030CB
:10004A000C06031D3A2806143430CC00F130CD00DA
:10005A00CD0B2D28CC0B2D2800000000051C3628BE
:10006A00332801308C0000308D00051C54280030E4
:10007A000D06031D422801300C06031D54280610E4
:10008A003430CC00F130CD00CD0B4928CC0B4928B7
:10009A0000000000051C52284F288C018D011E28E3
:0200AA005528D7
:02400E00FA3F77
:00000001FF
