:02000000632A71
:10000600083083120313FC002330FD00FD0B092882
:06001600FC0B09280800A4
:10001C00103083120313FD00FD0B122800000800A2
:04002C0000000800C8
:10003000831603179C1B2028831203130612232800
:10004000831203130616831603171C1B2B28831217
:10005000031386112E2883120313861583160317A4
:100060009C1A3628831203130611392883120313AE
:100070000615831603171C1A4128831203138610D2
:1000800044288312031386148316031712184C286E
:100090008312031386164F28831203138612061742
:1000A00016200613831603179C195A28831203136C
:1000B00006125D28831203130616831603171C19F4
:1000C000652883120313861168288312031386158B
:1000D000831603179C1870288312031306117328C4
:1000E000831203130615831603171C187B2883122B
:1000F000031386107E2883120313861483160317B6
:100100001218862883120313861689288312031374
:10011000861206171620061383160317121C922840
:08012000032093280E200800C3
:100128008316031712101B089C0018208316031748
:040138001214080095
:0E013C008316031714088A00130882000800B7
:10014A00B7288030831603179600CA28C030960055
:10015A00CA2894309600CA28D4309600CA2880301B
:10016A009600CA28831603171608013A0319A62807
:10017A001608023A0319AB281608033A0319AE28DF
:10018A001608043A0319B128B4281703F000160810
:10019A00F00770089600121470089C001820831645
:1001AA000317121018089C0018208316031712143C
:0201BA0008003B
:1001BC008316031306138612861006118611061277
:1001CC00831206138612061286110611861003205E
:1001DC000320032006158614061716200613032089
:1001EC0006171620061303200617162006130320E5
:1001FC008610061716200613032006171620061362
:10020C00061106160617162006130320061286146E
:10021C000617162006138610061716200613032041
:10022C00061716200613861406171620061303202D
:10023C008610061716200613061686150615861444
:10024C000617162006130320831603171214080032
:10025C00831603178C1C342900002E2916088312D0
:10026C008D008316170883128C0083168C130C15C3
:10027C000B08F0008B1355308D00AA308D008C14B8
:0E028C00F01B4A298B134B298B170C1108000D
:10029A005F2980308316031796007229C0309600B2
:1002AA007229943096007229D430960072298030CF
:1002BA0096007229831603171608013A03194E2964
:1002CA001608023A031953291608033A031956293C
:1002DA001608043A031959295C291703F00016086D
:1002EA00F0077008960070089C0018208316031700
:1002FA0012109901190818078400000803198D299A
:10030A0019081807840000089B009420990A7F297D
:04031A0012140800B1
:10031E009E208A110A128000840A930A0319940AF5
:08032E00F003031D8F290800F4
:100336008316031796019801990110309A0004302C
:1003460019020318D429F030831203138800803071
:10035600F0007008083E8400831603171A09F0009F
:1003660070088000162016200F308312031308052C
:10037600F000700883160317970070080319CE293A
:100386001808960017080319CC29970C9713960A94
:10039600C529043099009A0D1A1004309807990A55
:0803A600A2291608F00008006E
:1003AE00831603171608F1000C2A4F30F0004C2A62
:1003BE003030F0004C2A3D30F0004C2A2B30F0004B
:1003CE004C2A3130F0004C2A3230F0004C2A3330B7
:1003DE00F0004C2A2D30F0004C2A3430F0004C2A1C
:1003EE003530F0004C2A3630F0004C2A2A30F0001E
:1003FE004C2A3730F0004C2A3830F0004C2A393075
:10040E00F0004C2A2F30F0004C2A7108013A0319E3
:10041E00DC297108023A0319DF297108033A03191E
:10042E00E2297108043A0319E5297108053A0319FE
:10043E00E8297108063A0319EB297108073A0319DE
:10044E00EE297108083A0319F1297108093A0319BE
:10045E00F42971080A3A0319F72971080B3A03199E
:10046E00FA2971080C3A0319FD2971080D3A03197E
:10047E00002A71080E3A0319032A71080F3A03195C
:0C048E00062A7108103A0319092A080018
:10049A0083160317160883128D0083168C130C1407
:0804AA0083120C08F0000800A9
:1004B200803083120313F0007008083E8400FF307E
:0404C20080000800AE
:1004C600642783160313061486131F3089005922E6
:1004D600DE2001309C0018200C30831603179C0088
:1004E6001820831603179601313097002E2101300C
:1004F6009600393097002E2102309600373097004B
:100506002E2103309600323097002E218312EE0101
:10051600EF01013083169600013097003F309800B6
:100526004D219B2170088312ED000230FB00043040
:10053600FC00BA30FD00FD0B9E2AFC0B9E2AFB0B2D
:100546009E2A00006D080319942A6D0883169600EA
:10055600D72170088312ED000230831696000E3004
:10056600970070089800A52083126D084F3A03196A
:10057600D12A6D083D3A0319D12A6D082B3A031981
:10058600D12A6D082A3A0319D12A6D082D3A031982
:10059600D12A6D082F3A0319D12AEE2C6D084F3A4D
:1005A600031DA22C00306F06031DDB2A00306E06E9
:1005B600031DA22C013083169C00182001308316DF
:1005C60003179600013097004D3098004D21900199
:1005D600910180301106F00080307002031DF52A6B
:1005E60000301002031C842B80301106F00080308E
:1005F6007002031D002B043010020318842B9B216C
:1006060070088312EC000230FB000430FC00BA30A4
:10061600FD00FD0B0C2BFC0B0C2BFB0B0C2B00001D
:100626006C080319022B6C0883169600D7217008F4
:100636008312EC005C2B0230831696000130970083
:1006460083126C0883169800A52083126C08831603
:100656000313EF007E2B023003179600023097003B
:1006660083126C0883169800A52083126C08E50097
:100676007E2B0230831696000330970083126C0897
:1006860083169800A52083126C080313EF007E2BB7
:1006960002308316031796000430970083126C0805
:1006A60083169800A52083126C0883160313EE00A8
:1006B6007E2B8316003003171106031D642B0030B2
:1006C600100603191E2B00301106031D6C2B01307A
:1006D600100603192E2B00301106031D742B023051
:1006E600100603193C2B00301106031D7C2B03302A
:1006F600100603194B2B83160317900A0319910A48
:10070600EC2A01309C00182001308316031796004E
:10071600013097002F3098004D21900191018030D3
:100726001106F00080307002031D9B2B0030100272
:10073600031C222C80301106F00080307002031D4D
:10074600A62B043010020318222C9B21700883125A
:10075600EC000230FB000430FC00BA30FD00FD0B5B
:10076600B22BFC0BB22BFB0BB22B00006C0803194F
:10077600A82B6C0883169600D72170088312EC000C
:10078600FC2B0230831696000130970083126C080A
:1007960083169800A52083126C08E8001D2C0230F1
:1007A600831696000230970083126C088316980011
:1007B600A52083126C08E9001D2C023083169600D2
:1007C6000330970083126C0883169800A5208312C5
:1007D6006C08EA001D2C0230831696000430970040
:1007E60083126C0883169800A52083126C08EB0010
:1007F6001D2C003083161106031D032C0030100635
:100806000319C42B00301106031D0B2C01301006F2
:100816000319D22B00301106031D132C02301006CB
:100826000319E02B00301106031D1B2C03301006A4
:100836000319EE2B8316900A0319910A922B0130A5
:100846009C00182003176808831603136F06031D00
:10085600772C8312031769086506031D772C6A082F
:1008660003136F06031D772C03176B0883160313F8
:100876006E06031D772C013003179C001820031702
:10088600E601E70180306706F00080307002031D44
:100896004E2C043066020318602C660883169600F8
:1008A60083126608683E84000008831697002E218E
:1008B6008312E60A0319E70A452C013083169600CF
:1008C60001309700203098004D211030FB00393060
:1008D600FC000D30FD00FD0B6E2CFC0B6E2CFB0B93
:1008E6006E2C000000009A2C8316031701309C0022
:1008F60018200130831603179600013097001E302A
:1009060098004D2102309600013097002B30980058
:100916004D211030FB003930FC000D30FD00FD0B81
:10092600922CFC0B922CFB0B922C00000000013049
:10093600960001309700103098004D21C42C831684
:1009460001309C00182001308316031796000130F1
:100956009700E43098004D21023096000130970050
:10096600463098004D211030FB003930FC000D3028
:10097600FD00FD0BBC2CFC0BBC2CFB0BBC2C0000A7
:10098600000001309C001820003003176F06031D7D
:10099600CE2C00306E06031DD82C0130831696002F
:1009A60001309700573098004D21003083126F06B2
:1009B600031DDF2C01306E06031DE92C0130831662
:1009C6009600013097003A3098004D2183160313A4
:1009D600EC01ED016A2E83160313EC0A0319ED0AE6
:1009E600482E0230031796000130970083126D08D7
:1009F60083169800A52083126D0883160313EF0053
:100A06006A2E0230031796000230970083126D0893
:100A160083169800A52083126D08E5006A2E031739
:100A26000230831696000330970083126D088316F2
:100A36009800A52083126D080313EF006A2E831613
:100A4600EC01ED0102300317960004309700831283
:100A56006D0883169800A5208312E601E701803011
:100A66006706F00080307002031D3B2D04306602DD
:100A76000318502D6608683E831695008312660893
:100A8600831696004D228316150884007008800090
:100A96008312E60A0319E70A322D68088316031340
:100AA6006F06031DC22D8312031769086506031D11
:100AB600C22D6A0803136F06031DC22D03176B08A8
:100AC6006D06031DC22D00306F06031D6C2D003010
:100AD6006E06031D942D83160313E201E3011A30FB
:100AE600FB005E30FC006E30FD00FD0B782DFC0B2C
:100AF600782DFB0B782D0000013083120317EE00D2
:100B06000030EF008617013083169C001820013054
:100B160083160317960001309700643098004D2124
:100B26006A2E003083126F06031D9B2D01306E0660
:100B3600031DC12D83160313E201E3011A30FB00E6
:100B46005E30FC006E30FD00FD0BA72DFC0BA72DC3
:100B5600FB0BA72D0000831286130317EE01EF018E
:100B6600013083169C001820013083160317960067
:100B760001309700AE3098004D216A2E472E83161D
:100B86000313E20A0319E30AEC01ED01013003172E
:100B96009C00182001308316031796000130970039
:100BA6005A3098004D210B30FB002630FC005D309A
:100BB600FD00FD0BDC2DFC0BDC2DFB0BDC2D000002
:100BC6000000003083126F06031DEB2D00306E0609
:100BD600031DF52D01308316960001309700A030D5
:100BE60098004D21003083126F06031DFC2D013045
:100BF6006E06031D062E01308316960001309700FF
:100C0600C73098004D218316803003136306F00029
:100C160080307002031D112E03306202031C462E23
:100C2600E201E30101300317960001309700D3304B
:100C360098004D210230960001309700BC30980094
:100C46004D2102308312E6000030E7008030F000CC
:100C5600803067067002031D322E6608003C0318BA
:100C6600352E292E0130E602031CE7031A30FB005D
:100C76005E30FC006E30FD00FD0B3F2EFC0B3F2E60
:100C8600FB0B3F2E00006A2E6A2E003083160313DC
:100C96006D06031D502E01306C060319F42C00302E
:100CA6006D06031D582E02306C060319042D003004
:100CB6006D06031D602E03306C060319122D0030DD
:100CC6006D06031D682E04306C060319222D942A26
:020CD6006B2E83
:100EC80020308400443083120313F00071308316FD
:100ED80003179300063094008F21A03084000E3051
:100EE80083120313F0003230831603179300073080
:100EF80094008F21643084000B3083120313F000B8
:100F08004E30831603179300073094008F21AE30BC
:100F18008400363083120313F000B53083160317AC
:100F28009300063094008F211030831784000E3010
:100F380083120313F0004030831603179300073021
:100F480094008F218313E430840008308312031344
:100F5800F0005930831603179300073094008F214F
:100F68001E3083178400283083120313F000EB30FF
:100F7800831603179300063094008F218313EC30F7
:100F88008400023083120313F000613083160317C4
:100F98009300073094008F214630831784001F3058
:100FA80083120313F00013308316031793000730DE
:080FB80094008F21831308004F
:100CE200503461347334733477346F34723464340F
:0E0CF20020344D346F34643469346634003479
:100D000049344E34543452344F3420344E34453404
:100D1000573420344F34563445345A343A3400343E
:100D20005334493453342034533449344E3420340A
:0C0D3000413452344D344134523400340C
:100D3C0049344E34543452344F3420344E344534C8
:0A0D4C005734203450343A34003498
:100D56004E344F342034563441344C3449344434C0
:040D66004F340034D2
:100D6A005334493453342034533449344E342034C0
:0C0D7A00413452344D34413452340034C2
:100D860041346C34613472346D34203442346C3402
:060D96006F3471340034DB
:100D9C005334493453342034413452344D34413477
:080DAC00523444344F3400348A
:100DB4003334203469346E34743465346E347434AA
:0E0DC4006F3473342E342E342E342E3400341B
:040DD20000340034B5
:100DD6005034613473347334203431342034643401
:0A0DE60069346634203432340034DE
:100DF00049346E34743465346E347434653420345C
:0E0E00004E3475346534763461342E3400344B
:100E0E005334493453342034413452344D34413404
:080E1E00523444344F34003417
:100E2600433441344D34203453344F344C344F34EE
:100E3600203445344E3420344434413452344D3415
:020E4600003476
:100E48005334493453342034533449344E342034E1
:0C0E5800413452344D34413452340034E3
:100E64005334493453342034533449344E342034C5
:0C0E7400413452344D34413452340034C7
:100E80005334493453342034533449344E342034A9
:0C0E9000413452344D34413452340034AB
:100E9C005334493453342034413452344D34413476
:060EAC0044344F34003411
:100EB2005334493453342034413452344D340034A1
:040EC20000340034C4
:02400E004A2F37
:00000001FF
